:03000000020CE10E
:0C0CE100787FE4F6D8FD758141020D28F3
:10068C005B70726573735D204B6579285225642C01
:10069C004325642920697320707265737365642C1B
:1006AC002076616C75652069732025730A005B6C7C
:1006BC006F67496E7075745D204E6F77207573652A
:1006CC0072496E7075742062756666657220697306
:1006DC003A2025730A005B6E756D6265725D20753C
:1006EC00736572496E7075742062756666657220EA
:1006FC0069732066756C6C210A005B676574496EC2
:10070C007075745D2047657420696E7075743A203D
:10071C0025730A005B7365745077645D20537461B4
:10072C007274210A005B7365745077645D205061AC
:10073C0073736F777264206C656E677468206E6F6C
:10074C007420656E6F756768210A005B7365745061
:10075C0077645D2043616E206E6F74207573652025
:10076C0061646D696E2070776420617320757365A8
:10077C007220707764210A005B7365745077645D36
:10078C002070617373776F726420736574206F6B64
:10079C002C2069733A2025730A005B7365745077BB
:1007AC00645D2054776F2074696D657320696E7079
:1007BC0075747320617265206E6F7420657175613C
:1007CC006C2E0A0048656C6C6F20576F726C64213C
:1007DC000A0059755A68656E78692D323031393096
:1007EC00343032303230390A005B6D61696E5D2015
:1007FC00496E697420436F6D706C617465210A00D9
:10080C005B6D61696E5D2050617373776F726420EC
:10081C00736574206F6B210A005B6D61696E5D20DE
:10082C0050617373776F7264207269676874210A00
:10083C00005B6D61696E5D2041646D696E204D6F6A
:10084C0064652C20796F752063616E20736574204C
:10085C006E65772070617373776F7264210A005B29
:10086C006D61696E5D2050617373776F7264207374
:10087C006574206661696C2C206261636B20746FF7
:10088C002075736572206D6F6465210A005B6D6164
:10089C00696E5D2050617373776F72642077726F2D
:1008AC006E67210A00310032003300340035003607
:1008BC00003700380039004261636B003000456E30
:1008CC007465720050617373776F7264204C6F6340
:1008DC006B210A00496E7075742050617373776FC9
:1008EC0072640A0050776420536574204F4B0A00E1
:1008FC0050776420536574204661696C0A00507708
:10090C006420546F6F2053686F72740A0043616ED9
:10091C006E6F742075736520746869730A004F4B91
:10092C000A0050617373776F72642057726F6E6731
:10093C000A0041646D696E204D6F64650A00536551
:10094C00742050617373776F72640A00456E74651E
:09095C007220416761696E0A0016
:100FC500010DFF050E313233340005190000000014
:100FD50000051400000000000508000000000001E5
:020FE5001300F7
:10100800120EA67A087BD0E4FDFF120DC57D01E41F
:04101800FF020003D0
:080FA0007BFF7F017C007E0055
:100FA8008B268A2789288E2C8F2D8C2E8D2F8B307F
:0D0FB8008A3189327BFF7A06798C02008035
:100F2B00E513B401031210087B007A0079147D01DC
:100F3B00E4FF120D6D752C00752D00752E147BFFC3
:070F4B007A0679BA0200806A
:100ED700E513C394045010EF2430FFAE13051374C9
:100EE700142EF8A60780097BFF7A0679E2120080A4
:0A0EF70074142513F8E4F6020F2B23
:100FE800E513D394004002151374142513F8E4F69E
:100FF800120EA67A087BD0E4FDFF120DC5020F2B56
:03001800020F2BA9
:100F01007F017E00752200752301E50DF460061254
:100F11000AD0750DFFEF4E70F1F52C752D00752E71
:0A0F2100147BFF7A077906020080B6
:0B105A00E4F51374142513F8E4F622EB
:100BF3007BFF7A0779201200801210087A097B4A5A
:100C03007D01E4FF120DC512105A120F0178087C02
:100C1300007D007B007A0079141206341210087AE2
:100C2300097B587D01E4FF120DC512105A120F0102
:100C330078087C007D007B007A00791412054BEF65
:100C43007077E513640460161210087A097B0A7D35
:100C530001E4FF120DC57BFF7A07793180267814F2
:100C63007C007D007B007A00790E12054BEF70202B
:100C73001210087A097B197D01E4FF120DC57BFF71
:100C83007A0779571200807FB87E0B12101C804AB6
:100C930078197C007D007B007A0079141206347584
:100CA3002C00752D00752E197BFF7A0779841200AD
:100CB3008012105A7E007F01221210087A087BFCF2
:100CC3007D01E4FF120DC57BFF7A0779A612008030
:0E0CD3007FD07E0712101C12105AE4FEFF2282
:1009650012103E7BFF7A0779D01200807BFF7A0751
:1009750079DE120080758910758DD8758BF07588B4
:100985004075A888750DFFC2A0D2A17FE87E03122D
:10099500101CD2A0C2A17FE87E0312101CC2A0D2F7
:1009A500A11210087BFF7A0779F5120080120BF36C
:1009B500EF4E60F91210087A087BF07D01E4FF1212
:1009C5000DC57BFF7A08790C1200807FB87E0B126B
:1009D500101C7A087BE07D01E4FF120DC51210089A
:1009E5007A087BE07D01E4FF120DC5120F0178192D
:1009F5007C007D007B007A00791412054BEF702591
:100A0500D2A01210087A097B2A7D01E4FF120DC5D8
:100A15007BFF7A0879251200807FB87E0B12101CA7
:100A2500C2A0020ACA780E7C007D007B007A00799C
:100A35001412054BEF70697BFF7A08793D1200802F
:100A45001210087A097B3E7D01E4FF120DC57FD0A7
:100A55007E0712101C1210087A097B4A7D01E4FFFB
:100A6500120DC5120BF3EF4E60161210087A087BB3
:100A7500F07D01E4FF120DC57BFF7A08790C801427
:100A85001210087A087BFC7D01E4FF120DC57BFF7F
:100A95007A08796B1200807FD07E0712101C8022A5
:100AA5007BFF7A0879991200801210087A097B2E4B
:100AB5007D01E4FF120DC5C2A17FB87E0B12101C8B
:0B0AC500D2A112100812105A0209E220
:03001B00020E17BB
:100E1700C0E0C0F0C083C082C0D075D000C000C0A1
:100E270001C002C003C004C005C006C007C2AFC2EC
:100E37008E758DD8758BF0D28E120E628F0DD2AF54
:100E4700D007D006D005D004D003D002D001D000FF
:0B0E5700D0D0D082D083D0F0D0E032A9
:100AD000752400752501E50D1203A70B03110B2FDB
:100AE000120B6B140BAA180B11210B41220B802443
:100AF0000BC0280B1F410B56420B95440BD84800E6
:100B0000000BEE7A0879B17D01120FA07F01020B74
:100B1000D37A0879B37D02120FA07F02020BD37B38
:100B2000FF7A0879B57D03120FA27F03020BD37BF6
:100B3000FF7A0879B77D017F02120FA47F04020BB0
:100B4000D37BFF7A0879B97D027C007F027E001298
:100B50000FA87F05807D7BFF7A0879BB7D037C0031
:100B60007F027E00120FA87F0680687BFF7A0879DB
:100B7000BD7D017C007F037E00120FA87F0780539C
:100B80007BFF7A0879BF7D027C007F037E00120F15
:100B9000A87F08803E7BFF7A0879C17D037C007FB7
:100BA000037E00120FA87F0980297BFF7A0879C392
:100BB0007D017C007F047E00120FA8120FE8802EBA
:100BC0007BFF7A0879C87D027C007F047E00120FCB
:100BD000A8E4FF120ED780167BFF7A0879CA7D033E
:100BE0007C007F047E00120FA8E4F524F525AE24D6
:020BF000AF252F
:010BF20022E0
:100E620075900FE590540FFFBF0F037FFF2275901F
:100E7200F0E59054F0F53E4FF53D7F0A7E001210EA
:100E82001C75900FE590540FFFBF0F037FFF227573
:100E920090F0E59054F0F53E2FFFB53D04EFF4FFDE
:030EA200227FFFAD
:010EA500222A
:10101C00EF4E600DE4FD0DBDEFFCEF1F70F21E8076
:01102C00EFD4
:01102D0022A0
:0F103E0075985075CBFF75CADC75C834D29922EE
:080DC5008F268D278A288B2957
:100DCD00E4F52BE529252BF582E43528F583E4930D
:100DDD00D3941F4004052B80EAE4F52AE52AC39538
:100DED002B5026AF260526E529252AF582E4352840
:100DFD00F583E493FBAD27121065E526B41006E4E8
:090E0D00F526632701052A80D3B4
:010E160022B9
:0A0D6D008F268D278B288A29892AFA
:100D7700E4F52CAB28AA29A92A852C8275830012B1
:100D8700037AD3941F4004052C80E8E4F52BE52B68
:100D9700C3952C5028AF260526AB28AA29A92A8552
:100DA7002B8275830012037AFBAD27121065E526A7
:0D0DB700B41006E4F526632701052B80D15A
:010DC400220C
:020F52008F3FCF
:100F5400E4F540AB3F053FAD41AF40121065533F50
:100F64007FE53FC394205003753F200540E540C30F
:040F7400941040DFB6
:010F78002256
:10000300EF540FFF530501ED60034307404307809F
:05001300E4FD02102EC7
:0A1065008B2D120003AF2D02104D79
:100EA6007F907E0112101CE4FD7F3812102E90FFF9
:100EB600F1E020E7F97D017F0812102E7D017F0603
:100EC60012102E7D017F0F12102E7D017F01021060
:010ED6002EED
:10102E00ED600790FFF1E020E7F990FFF0EFF0227E
:0D104D0090FFF1E020E7F990FFF2EFF022B4
:100CED00020965E493A3F8E493A34003F68001F2AF
:100CFD0008DFF48029E493A3F85407240CC8C33308
:100D0D00C4540F4420C8834004F456800146F6DFD6
:100D1D00E4800B0102040810204080900FC5E47E92
:100D2D00019360BCA3FF543F30E509541FFEE493CB
:100D3D00A360010ECF54C025E060A840B8E493A392
:100D4D00FAE493A3F8E493A3C8C582C8CAC583CABD
:100D5D00F0A3C8C582C8CAC583CADFE9DEE780BE75
:010FE7000009
:10037A00BB010CE58229F582E5833AF583E0225038
:10038A0006E92582F8E622BBFE06E92582F8E22282
:0D039A00E58229F582E5833AF583E493229C
:1003A700D083D082F8E4937012740193700DA3A3E5
:1003B70093F8740193F5828883E4737402936860F9
:0603C700EFA3A3A380DFF9
:10001E00E538242CF8E60538227829300702782CAA
:10002E00E475F00112067C0206512000EB7F2ED201
:10003E00008018EF540F2490D43440D4FF30040BBA
:10004E00EF24BFB41A0050032461FFE53960021596
:10005E0039053CE53C7002053B30070D7829E47507
:10006E00F00112067CEF02066A020F797403D207C2
:10007E008003E4C207F5388B298A2A892BE4F539E7
:10008E00F53BF53CE53960077F2012005980F57588
:10009E003AFFC201C200C202C203C205C206C208B2
:1000AE00120027FF700D3007057F0012006AAF3C6B
:1000BE00AE3B22B4255FC2D5C204120027FF24D066
:1000CE00B40A00501A75F00A783930D50508B6FF13
:1000DE000106C6A426F620D5047002D20380D924C8
:1000EE00CFB41A00EF5004C2E5D20402026AD20164
:1000FE0080C6D20080C0D20280BCD2D580BAD205D2
:10010E0080B47F201200592002077401B5390040D7
:10011E00F112001EFF120059020092D208D2068080
:10012E009512001EFB12001EFA12001EF94A4B70A9
:10013E0006793B7A037BFF20022EE539602A7E008A
:10014E008E8275830012037A60060EEE653A70F0A9
:10015E00C2D5EBC0E0EAC0E0E9C0E0EE1202B1D0D9
:10016E00E0F9D0E0FAD0E0FB120651FF60AAEBC036
:10017E00E0EAC0E0E9C0E0120059D0E02401F9D075
:10018E00E03400FAD0E0FBE53A0460DCD53AD980E1
:10019E00877BFF7A0279ADD202809C79108002793A
:1001AE0008C206C2088008D2D5790A8004790AC22C
:1001BE00D5E53A047002F53AE4FAFDFEFF12001E90
:1001CE00FC7B0820011312001EFD7B1030000A126A
:1001DE00001EFE12001EFF7B20EC3382D592D550FE
:1001EE0013C3E43000069FFFE49EFEE42001039D4E
:1001FE00FDE49CFCE4CBF8C201EC700CCFCECDCC70
:10020E00E824F8F870F38017C3EF33FFEE33FEEDFA
:10021E0033FDEC33FCEB33FB994002FB0FD8E9EBDB
:10022E00300105F8D0E0C448B201C0E00AEC4D4EF2
:10023E004F78207B0070C2EAB53A0040BCC0E01295
:10024E0002B3D0F0D0E0200104C4C0E0C4B201C0BB
:10025E00F0120042D0F0D5F0EB0200921203A7018B
:10026E002F5301A95801004C00FC4201AD4F01B5BE
:0F027E004401B54901154301BB55019F46019F3E
:10028D0045019F47035B5001042D01082E012B2BC7
:10029D00010C2301292003442A00C4480000012336
:1002AD003F3F3F00790AA2D5200314300509B9104C
:1002BD00020404B9080104A2D5200602500104204D
:1002CD0002689202B539005034C0E07F2030031926
:1002DD007F30A20272067205500F12030AC202C2CB
:1002ED0006C205C2087F30800F300503E9C0E01259
:1002FD000059300503D0E0F9D0E0B539CC30051701
:10030D007F30B9100C1200597F583004077F788068
:10031D0003B908031200593002057F2D0200597FE1
:10032D00202008F87F2B2006F322920280CF286E22
:10033D00756C6C2900D20112001E3001F8C20178D3
:10034D003930D50108F60200C42D5043495812002A
:10035D001E2403B405004001E49003569312004A95
:0D036D00743A12004AD2037539040201A946
:1003CD00E3F5F009E208B5F06D606B80F3E3F5F04D
:1003DD0009E608B5F060605E80F387F009E608B5C0
:1003ED00F054605280F487F009E208B5F048604699
:1003FD0080F488828C8387F009E0A3B5F0386036ED
:10040D0080F488828C8387F009E493A3B5F027608C
:10041D002580F388828C83E3F5F009E0A3B5F0160F
:10042D00601480F388828C83E3F5F009E493A3B51F
:10043D00F004600280F20204F8808580E7808E80EF
:10044D00D2803C8015806C807E809B80B5808B80B7
:10045D00A1804F8070803A02050489828A83ECFA6C
:10046D00E493F5F0A3C8C582C8CCC583CCE493A3AF
:10047D00C8C582C8CCC583CCB5F070606E80E189EB
:10048D00828A83E493F5F0A3E208B5F05E605C80A8
:10049D00F289828A83E0F5F0A3E608B5F04D604B52
:1004AD0080F389828A83E0F5F0A3E208B5F03C6021
:1004BD003A80F389828A83E493F5F0A3E608B5F0D8
:1004CD002A602880F2805389828A83ECFAE493F5BE
:1004DD00F0A3C8C582C8CCC583CCE0A3C8C582C86B
:1004ED00CCC583CCB5F004600280E27FFFB5F0028D
:1004FD000F2240027F012289828A83ECFAE0F5F017
:10050D00A3C8C582C8CCC583CCE0A3C8C582C8CC5E
:10051D00C583CCB5F0D560D380E389828A83ECFAAC
:10052D00E0F5F0A3C8C582C8CCC583CCE493A3C8BD
:10053D00C582C8CCC583CCB5F0B160AF80E288F080
:10054D00ED2402B4040050A3F582EB2402B40400A0
:0B055D0050992323458223900446732D
:10056800E709F60870FA8046E709F20870FA803E53
:1005780088828C83E709F0A370FA807EE309F60885
:1005880070FA8076E309F20870FA806E88828C83AC
:10059800E309F0A370FA806289828A83E0A3F608EF
:1005A80070FA805689828A83E0A3F20870FA804A3A
:1005B80080D280FA80C680D4806580F28031801035
:1005C80080A680EA809A80A880DA80E280CA80319A
:1005D80089828A83ECFAE493A3C8C582C8CCC58310
:1005E800CCF0A3C8C582C8CCC583CC70E9800D897E
:1005F800828A83E493A3F60870F9ECFAA9F0EDFB7C
:100608002289828A83ECFAE0A3C8C582C8CCC58354
:10061800CCF0A3C8C582C8CCC583CC70EA80DD897C
:10062800828A83E493A3F20870F980CE88F0ED24DF
:1006380002B4040050C4F582EB2402B4040050BA9A
:0906480023234582239005B873B9
:10065100BB010689828A83E0225002E722BBFE02A7
:09066100E32289828A83E49322DA
:10066A00BB010689828A83F0225002F722BBFE016F
:02067A00F32269
:10067C00FAE6FB0808E6F925F0F618E6CA3AF6227F
:100F7900EFB40A07740D120F84740A309811A899F6
:100F8900B8130CC2983098FDA899C298B811F630D8
:070F990099FDC299F59922B0
:00000001FF
